{
  "abi": [
    {
      "inputs": [
        {
          "internalType": "address",
          "name": "_depositorAddress",
          "type": "address"
        },
        {
          "internalType": "string",
          "name": "_name",
          "type": "string"
        },
        {
          "internalType": "string",
          "name": "_symbol",
          "type": "string"
        },
        {
          "internalType": "uint256",
          "name": "_initialSupply",
          "type": "uint256"
        }
      ],
      "stateMutability": "nonpayable",
      "type": "constructor"
    },
    {
      "anonymous": false,
      "inputs": [
        {
          "indexed": true,
          "internalType": "address",
          "name": "owner",
          "type": "address"
        },
        {
          "indexed": true,
          "internalType": "address",
          "name": "spender",
          "type": "address"
        },
        {
          "indexed": false,
          "internalType": "uint256",
          "name": "value",
          "type": "uint256"
        }
      ],
      "name": "Approval",
      "type": "event"
    },
    {
      "anonymous": false,
      "inputs": [
        {
          "indexed": true,
          "internalType": "address",
          "name": "from",
          "type": "address"
        },
        {
          "indexed": true,
          "internalType": "address",
          "name": "to",
          "type": "address"
        },
        {
          "indexed": false,
          "internalType": "uint256",
          "name": "value",
          "type": "uint256"
        }
      ],
      "name": "Transfer",
      "type": "event"
    },
    {
      "inputs": [
        {
          "internalType": "address",
          "name": "owner",
          "type": "address"
        },
        {
          "internalType": "address",
          "name": "spender",
          "type": "address"
        }
      ],
      "name": "allowance",
      "outputs": [
        {
          "internalType": "uint256",
          "name": "",
          "type": "uint256"
        }
      ],
      "stateMutability": "view",
      "type": "function"
    },
    {
      "inputs": [
        {
          "internalType": "address",
          "name": "spender",
          "type": "address"
        },
        {
          "internalType": "uint256",
          "name": "amount",
          "type": "uint256"
        }
      ],
      "name": "approve",
      "outputs": [
        {
          "internalType": "bool",
          "name": "",
          "type": "bool"
        }
      ],
      "stateMutability": "nonpayable",
      "type": "function"
    },
    {
      "inputs": [
        {
          "internalType": "address",
          "name": "account",
          "type": "address"
        }
      ],
      "name": "balanceOf",
      "outputs": [
        {
          "internalType": "uint256",
          "name": "",
          "type": "uint256"
        }
      ],
      "stateMutability": "view",
      "type": "function"
    },
    {
      "inputs": [
        {
          "internalType": "address",
          "name": "userAccount",
          "type": "address"
        },
        {
          "internalType": "uint256",
          "name": "amountToBurn",
          "type": "uint256"
        }
      ],
      "name": "burnToken",
      "outputs": [],
      "stateMutability": "nonpayable",
      "type": "function"
    },
    {
      "inputs": [],
      "name": "decimals",
      "outputs": [
        {
          "internalType": "uint8",
          "name": "",
          "type": "uint8"
        }
      ],
      "stateMutability": "view",
      "type": "function"
    },
    {
      "inputs": [
        {
          "internalType": "address",
          "name": "spender",
          "type": "address"
        },
        {
          "internalType": "uint256",
          "name": "subtractedValue",
          "type": "uint256"
        }
      ],
      "name": "decreaseAllowance",
      "outputs": [
        {
          "internalType": "bool",
          "name": "",
          "type": "bool"
        }
      ],
      "stateMutability": "nonpayable",
      "type": "function"
    },
    {
      "inputs": [],
      "name": "depositorAddress",
      "outputs": [
        {
          "internalType": "address",
          "name": "",
          "type": "address"
        }
      ],
      "stateMutability": "view",
      "type": "function"
    },
    {
      "inputs": [
        {
          "internalType": "address",
          "name": "spender",
          "type": "address"
        },
        {
          "internalType": "uint256",
          "name": "addedValue",
          "type": "uint256"
        }
      ],
      "name": "increaseAllowance",
      "outputs": [
        {
          "internalType": "bool",
          "name": "",
          "type": "bool"
        }
      ],
      "stateMutability": "nonpayable",
      "type": "function"
    },
    {
      "inputs": [
        {
          "internalType": "address",
          "name": "userAccount",
          "type": "address"
        },
        {
          "internalType": "uint256",
          "name": "amountToMint",
          "type": "uint256"
        }
      ],
      "name": "mintToken",
      "outputs": [],
      "stateMutability": "nonpayable",
      "type": "function"
    },
    {
      "inputs": [],
      "name": "name",
      "outputs": [
        {
          "internalType": "string",
          "name": "",
          "type": "string"
        }
      ],
      "stateMutability": "view",
      "type": "function"
    },
    {
      "inputs": [],
      "name": "symbol",
      "outputs": [
        {
          "internalType": "string",
          "name": "",
          "type": "string"
        }
      ],
      "stateMutability": "view",
      "type": "function"
    },
    {
      "inputs": [],
      "name": "totalSupply",
      "outputs": [
        {
          "internalType": "uint256",
          "name": "",
          "type": "uint256"
        }
      ],
      "stateMutability": "view",
      "type": "function"
    },
    {
      "inputs": [
        {
          "internalType": "address",
          "name": "to",
          "type": "address"
        },
        {
          "internalType": "uint256",
          "name": "amount",
          "type": "uint256"
        }
      ],
      "name": "transfer",
      "outputs": [
        {
          "internalType": "bool",
          "name": "",
          "type": "bool"
        }
      ],
      "stateMutability": "nonpayable",
      "type": "function"
    },
    {
      "inputs": [
        {
          "internalType": "address",
          "name": "from",
          "type": "address"
        },
        {
          "internalType": "address",
          "name": "to",
          "type": "address"
        },
        {
          "internalType": "uint256",
          "name": "amount",
          "type": "uint256"
        }
      ],
      "name": "transferFrom",
      "outputs": [
        {
          "internalType": "bool",
          "name": "",
          "type": "bool"
        }
      ],
      "stateMutability": "nonpayable",
      "type": "function"
    }
  ],
  "bytecode": {
    "object": "0x60806040523480156200001157600080fd5b5060405162000ef038038062000ef08339810160408190526200003491620001a3565b82826003620000448382620002c4565b506004620000538282620002c4565b5050506001600160a01b038416620000a45760405162461bcd60e51b815260206004820152601060248201526f77726f6e6720756e6465726c79696e6760801b604482015260640160405180910390fd5b60058054336001600160a01b031991821617909155600680549091166001600160a01b039590951694909417909355505060075562000390565b634e487b7160e01b600052604160045260246000fd5b600082601f8301126200010657600080fd5b81516001600160401b0380821115620001235762000123620000de565b604051601f8301601f19908116603f011681019082821181831017156200014e576200014e620000de565b816040528381526020925086838588010111156200016b57600080fd5b600091505b838210156200018f578582018301518183018401529082019062000170565b600093810190920192909252949350505050565b60008060008060808587031215620001ba57600080fd5b84516001600160a01b0381168114620001d257600080fd5b60208601519094506001600160401b0380821115620001f057600080fd5b620001fe88838901620000f4565b945060408701519150808211156200021557600080fd5b506200022487828801620000f4565b606096909601519497939650505050565b600181811c908216806200024a57607f821691505b6020821081036200026b57634e487b7160e01b600052602260045260246000fd5b50919050565b601f821115620002bf57600081815260208120601f850160051c810160208610156200029a5750805b601f850160051c820191505b81811015620002bb57828155600101620002a6565b5050505b505050565b81516001600160401b03811115620002e057620002e0620000de565b620002f881620002f1845462000235565b8462000271565b602080601f831160018114620003305760008415620003175750858301515b600019600386901b1c1916600185901b178555620002bb565b600085815260208120601f198616915b82811015620003615788860151825594840194600190910190840162000340565b5085821015620003805787850151600019600388901b60f8161c191681555b5050505050600190811b01905550565b610b5080620003a06000396000f3fe608060405234801561001057600080fd5b50600436106100ea5760003560e01c806370a082311161008c578063a457c2d711610066578063a457c2d7146101e8578063a9059cbb146101fb578063d1df306c1461020e578063dd62ed3e1461022157600080fd5b806370a08231146101a257806379c65068146101cb57806395d89b41146101e057600080fd5b806323b872dd116100c857806323b872dd14610142578063313ce5671461015557806339509351146101645780633fab693f1461017757600080fd5b806306fdde03146100ef578063095ea7b31461010d57806318160ddd14610130575b600080fd5b6100f7610234565b604051610104919061099a565b60405180910390f35b61012061011b366004610a04565b6102c6565b6040519015158152602001610104565b6002545b604051908152602001610104565b610120610150366004610a2e565b6102e0565b60405160128152602001610104565b610120610172366004610a04565b610304565b60065461018a906001600160a01b031681565b6040516001600160a01b039091168152602001610104565b6101346101b0366004610a6a565b6001600160a01b031660009081526020819052604090205490565b6101de6101d9366004610a04565b610326565b005b6100f76103a1565b6101206101f6366004610a04565b6103b0565b610120610209366004610a04565b61042b565b6101de61021c366004610a04565b610439565b61013461022f366004610a8c565b610443565b60606003805461024390610abf565b80601f016020809104026020016040519081016040528092919081815260200182805461026f90610abf565b80156102bc5780601f10610291576101008083540402835291602001916102bc565b820191906000526020600020905b81548152906001019060200180831161029f57829003601f168201915b5050505050905090565b6000336102d481858561046e565b60019150505b92915050565b6000336102ee858285610593565b6102f985858561060d565b506001949350505050565b6000336102d48185856103178383610443565b6103219190610af9565b61046e565b6005546001600160a01b031633146103935760405162461bcd60e51b815260206004820152602560248201527f4f6e6c7920746865204f776e65722063616e2063616c6c20746869732066756e60448201526431ba34b7b760d91b60648201526084015b60405180910390fd5b61039d82826107b1565b5050565b60606004805461024390610abf565b600033816103be8286610443565b90508381101561041e5760405162461bcd60e51b815260206004820152602560248201527f45524332303a2064656372656173656420616c6c6f77616e63652062656c6f77604482015264207a65726f60d81b606482015260840161038a565b6102f9828686840361046e565b6000336102d481858561060d565b61039d8282610870565b6001600160a01b03918216600090815260016020908152604080832093909416825291909152205490565b6001600160a01b0383166104d05760405162461bcd60e51b8152602060048201526024808201527f45524332303a20617070726f76652066726f6d20746865207a65726f206164646044820152637265737360e01b606482015260840161038a565b6001600160a01b0382166105315760405162461bcd60e51b815260206004820152602260248201527f45524332303a20617070726f766520746f20746865207a65726f206164647265604482015261737360f01b606482015260840161038a565b6001600160a01b0383811660008181526001602090815260408083209487168084529482529182902085905590518481527f8c5be1e5ebec7d5bd14f71427d1e84f3dd0314c0f7b2291e5b200ac8c7c3b92591015b60405180910390a3505050565b600061059f8484610443565b9050600019811461060757818110156105fa5760405162461bcd60e51b815260206004820152601d60248201527f45524332303a20696e73756666696369656e7420616c6c6f77616e6365000000604482015260640161038a565b610607848484840361046e565b50505050565b6001600160a01b0383166106715760405162461bcd60e51b815260206004820152602560248201527f45524332303a207472616e736665722066726f6d20746865207a65726f206164604482015264647265737360d81b606482015260840161038a565b6001600160a01b0382166106d35760405162461bcd60e51b815260206004820152602360248201527f45524332303a207472616e7366657220746f20746865207a65726f206164647260448201526265737360e81b606482015260840161038a565b6001600160a01b0383166000908152602081905260409020548181101561074b5760405162461bcd60e51b815260206004820152602660248201527f45524332303a207472616e7366657220616d6f756e7420657863656564732062604482015265616c616e636560d01b606482015260840161038a565b6001600160a01b03848116600081815260208181526040808320878703905593871680835291849020805487019055925185815290927fddf252ad1be2c89b69c2b068fc378daa952ba7f163c4a11628f55a4df523b3ef910160405180910390a3610607565b6001600160a01b0382166108075760405162461bcd60e51b815260206004820152601f60248201527f45524332303a206d696e7420746f20746865207a65726f206164647265737300604482015260640161038a565b80600260008282546108199190610af9565b90915550506001600160a01b038216600081815260208181526040808320805486019055518481527fddf252ad1be2c89b69c2b068fc378daa952ba7f163c4a11628f55a4df523b3ef910160405180910390a35050565b6001600160a01b0382166108d05760405162461bcd60e51b815260206004820152602160248201527f45524332303a206275726e2066726f6d20746865207a65726f206164647265736044820152607360f81b606482015260840161038a565b6001600160a01b038216600090815260208190526040902054818110156109445760405162461bcd60e51b815260206004820152602260248201527f45524332303a206275726e20616d6f756e7420657863656564732062616c616e604482015261636560f01b606482015260840161038a565b6001600160a01b0383166000818152602081815260408083208686039055600280548790039055518581529192917fddf252ad1be2c89b69c2b068fc378daa952ba7f163c4a11628f55a4df523b3ef9101610586565b600060208083528351808285015260005b818110156109c7578581018301518582016040015282016109ab565b506000604082860101526040601f19601f8301168501019250505092915050565b80356001600160a01b03811681146109ff57600080fd5b919050565b60008060408385031215610a1757600080fd5b610a20836109e8565b946020939093013593505050565b600080600060608486031215610a4357600080fd5b610a4c846109e8565b9250610a5a602085016109e8565b9150604084013590509250925092565b600060208284031215610a7c57600080fd5b610a85826109e8565b9392505050565b60008060408385031215610a9f57600080fd5b610aa8836109e8565b9150610ab6602084016109e8565b90509250929050565b600181811c90821680610ad357607f821691505b602082108103610af357634e487b7160e01b600052602260045260246000fd5b50919050565b808201808211156102da57634e487b7160e01b600052601160045260246000fdfea26469706673582212200c05ba48e69e77e824f3b2d447e7c6c65ad5e9701d5a3a13a02daf0589a995db64736f6c63430008130033",
    "linkReferences": {}
  },
  "methodIdentifiers": {
    "allowance(address,address)": "dd62ed3e",
    "approve(address,uint256)": "095ea7b3",
    "balanceOf(address)": "70a08231",
    "burnToken(address,uint256)": "d1df306c",
    "decimals()": "313ce567",
    "decreaseAllowance(address,uint256)": "a457c2d7",
    "depositorAddress()": "3fab693f",
    "increaseAllowance(address,uint256)": "39509351",
    "mintToken(address,uint256)": "79c65068",
    "name()": "06fdde03",
    "symbol()": "95d89b41",
    "totalSupply()": "18160ddd",
    "transfer(address,uint256)": "a9059cbb",
    "transferFrom(address,address,uint256)": "23b872dd"
  },
  "id": 1
}