{
  "abi": [
    {
      "inputs": [],
      "stateMutability": "nonpayable",
      "type": "constructor"
    },
    {
      "inputs": [
        {
          "internalType": "address",
          "name": "",
          "type": "address"
        }
      ],
      "name": "addressToBottleQuantity",
      "outputs": [
        {
          "internalType": "uint256",
          "name": "",
          "type": "uint256"
        }
      ],
      "stateMutability": "view",
      "type": "function"
    },
    {
      "inputs": [
        {
          "internalType": "address",
          "name": "",
          "type": "address"
        }
      ],
      "name": "addressToUser",
      "outputs": [
        {
          "internalType": "string",
          "name": "email",
          "type": "string"
        },
        {
          "internalType": "string",
          "name": "password",
          "type": "string"
        },
        {
          "internalType": "address payable",
          "name": "usdcWalletAddress",
          "type": "address"
        }
      ],
      "stateMutability": "view",
      "type": "function"
    },
    {
      "inputs": [
        {
          "internalType": "address payable",
          "name": "uSDCWalletAddr",
          "type": "address"
        },
        {
          "internalType": "uint256",
          "name": "petBottleQty",
          "type": "uint256"
        }
      ],
      "name": "depositPetBottle",
      "outputs": [],
      "stateMutability": "nonpayable",
      "type": "function"
    },
    {
      "inputs": [],
      "name": "exchangeRateInUSDC",
      "outputs": [
        {
          "internalType": "uint256",
          "name": "",
          "type": "uint256"
        }
      ],
      "stateMutability": "view",
      "type": "function"
    },
    {
      "inputs": [
        {
          "internalType": "address",
          "name": "",
          "type": "address"
        }
      ],
      "name": "receiptTokens",
      "outputs": [
        {
          "internalType": "contract rEDCToken",
          "name": "",
          "type": "address"
        }
      ],
      "stateMutability": "view",
      "type": "function"
    },
    {
      "inputs": [
        {
          "internalType": "uint256",
          "name": "tokensToRedeem",
          "type": "uint256"
        }
      ],
      "name": "redeemReceiptTokens",
      "outputs": [],
      "stateMutability": "payable",
      "type": "function"
    }
  ],
  "bytecode": {
    "object": "0x6080604052633b9aca0060085534801561001857600080fd5b50600380546001600160a01b031916339081179091556001600955600854604051610042906100e6565b6001600160a01b039092168252608060208301819052600b908301526a526563656970742045444360a81b60a083015260c060408301819052600490830152637244454360e01b60e0830152606082015261010001604051809103906000f0801580156100b3573d6000803e3d6000fd5b5033600090815260076020526040902080546001600160a01b0319166001600160a01b03929092169190911790556100f3565b610ef0806107db83390190565b6106d9806101026000396000f3fe6080604052600436106100555760003560e01c8063775ab0831461005a57806378c4eb8b1461008357806392ecd541146100b0578063c01d4283146100c5578063d6d4e9ed146100e5578063edf5388614610133575b600080fd5b34801561006657600080fd5b5061007060095481565b6040519081526020015b60405180910390f35b34801561008f57600080fd5b5061007061009e366004610523565b60066020526000908152604090205481565b6100c36100be366004610547565b610162565b005b3480156100d157600080fd5b506100c36100e0366004610560565b610310565b3480156100f157600080fd5b5061011b610100366004610523565b6007602052600090815260409020546001600160a01b031681565b6040516001600160a01b03909116815260200161007a565b34801561013f57600080fd5b5061015361014e366004610523565b6103d0565b60405161007a939291906105d2565b600081116101d35760405162461bcd60e51b815260206004820152603360248201527f2050657420426f74746c652051747920546f2052656465656d206d7573742062604482015272652067726561746572207468616e207a65726f60681b60648201526084015b60405180910390fd5b336000908152600660205260409020548111156102325760405162461bcd60e51b815260206004820152601b60248201527f496e73756666696369656e7420746f6b656e73546f52656465656d000000000060448201526064016101ca565b6000600954826102429190610626565b3360008181526007602052604090819020549051633477cc1b60e21b81526004810192909252602482018590529192506001600160a01b039091169063d1df306c90604401600060405180830381600087803b1580156102a157600080fd5b505af11580156102b5573d6000803e3d6000fd5b505033600090815260066020526040812080548694509092506102d9908490610643565b9091555050604051339082156108fc029083906000818181858888f1935050505015801561030b573d6000803e3d6000fd5b505050565b33600090815260056020908152604080832060020180546001600160a01b0319166001600160a01b038716179055600690915281208054839290610355908490610656565b90915550503360008181526007602052604090819020549051630f38ca0d60e31b81526004810192909252602482018390526001600160a01b0316906379c6506890604401600060405180830381600087803b1580156103b457600080fd5b505af11580156103c8573d6000803e3d6000fd5b505050505050565b6005602052600090815260409020805481906103eb90610669565b80601f016020809104026020016040519081016040528092919081815260200182805461041790610669565b80156104645780601f1061043957610100808354040283529160200191610464565b820191906000526020600020905b81548152906001019060200180831161044757829003601f168201915b50505050509080600101805461047990610669565b80601f01602080910402602001604051908101604052809291908181526020018280546104a590610669565b80156104f25780601f106104c7576101008083540402835291602001916104f2565b820191906000526020600020905b8154815290600101906020018083116104d557829003601f168201915b505050600290930154919250506001600160a01b031683565b6001600160a01b038116811461052057600080fd5b50565b60006020828403121561053557600080fd5b81356105408161050b565b9392505050565b60006020828403121561055957600080fd5b5035919050565b6000806040838503121561057357600080fd5b823561057e8161050b565b946020939093013593505050565b6000815180845260005b818110156105b257602081850181015186830182015201610596565b506000602082860101526020601f19601f83011685010191505092915050565b6060815260006105e5606083018661058c565b82810360208401526105f7818661058c565b91505060018060a01b0383166040830152949350505050565b634e487b7160e01b600052601160045260246000fd5b808202811582820484141761063d5761063d610610565b92915050565b8181038181111561063d5761063d610610565b8082018082111561063d5761063d610610565b600181811c9082168061067d57607f821691505b60208210810361069d57634e487b7160e01b600052602260045260246000fd5b5091905056fea2646970667358221220adc8d8e5f27d4374f996e39a84ecd506c0dec89c16bf8c65cdc30d4c258e4b3064736f6c6343000813003360806040523480156200001157600080fd5b5060405162000ef038038062000ef08339810160408190526200003491620001a3565b82826003620000448382620002c4565b506004620000538282620002c4565b5050506001600160a01b038416620000a45760405162461bcd60e51b815260206004820152601060248201526f77726f6e6720756e6465726c79696e6760801b604482015260640160405180910390fd5b60058054336001600160a01b031991821617909155600680549091166001600160a01b039590951694909417909355505060075562000390565b634e487b7160e01b600052604160045260246000fd5b600082601f8301126200010657600080fd5b81516001600160401b0380821115620001235762000123620000de565b604051601f8301601f19908116603f011681019082821181831017156200014e576200014e620000de565b816040528381526020925086838588010111156200016b57600080fd5b600091505b838210156200018f578582018301518183018401529082019062000170565b600093810190920192909252949350505050565b60008060008060808587031215620001ba57600080fd5b84516001600160a01b0381168114620001d257600080fd5b60208601519094506001600160401b0380821115620001f057600080fd5b620001fe88838901620000f4565b945060408701519150808211156200021557600080fd5b506200022487828801620000f4565b606096909601519497939650505050565b600181811c908216806200024a57607f821691505b6020821081036200026b57634e487b7160e01b600052602260045260246000fd5b50919050565b601f821115620002bf57600081815260208120601f850160051c810160208610156200029a5750805b601f850160051c820191505b81811015620002bb57828155600101620002a6565b5050505b505050565b81516001600160401b03811115620002e057620002e0620000de565b620002f881620002f1845462000235565b8462000271565b602080601f831160018114620003305760008415620003175750858301515b600019600386901b1c1916600185901b178555620002bb565b600085815260208120601f198616915b82811015620003615788860151825594840194600190910190840162000340565b5085821015620003805787850151600019600388901b60f8161c191681555b5050505050600190811b01905550565b610b5080620003a06000396000f3fe608060405234801561001057600080fd5b50600436106100ea5760003560e01c806370a082311161008c578063a457c2d711610066578063a457c2d7146101e8578063a9059cbb146101fb578063d1df306c1461020e578063dd62ed3e1461022157600080fd5b806370a08231146101a257806379c65068146101cb57806395d89b41146101e057600080fd5b806323b872dd116100c857806323b872dd14610142578063313ce5671461015557806339509351146101645780633fab693f1461017757600080fd5b806306fdde03146100ef578063095ea7b31461010d57806318160ddd14610130575b600080fd5b6100f7610234565b604051610104919061099a565b60405180910390f35b61012061011b366004610a04565b6102c6565b6040519015158152602001610104565b6002545b604051908152602001610104565b610120610150366004610a2e565b6102e0565b60405160128152602001610104565b610120610172366004610a04565b610304565b60065461018a906001600160a01b031681565b6040516001600160a01b039091168152602001610104565b6101346101b0366004610a6a565b6001600160a01b031660009081526020819052604090205490565b6101de6101d9366004610a04565b610326565b005b6100f76103a1565b6101206101f6366004610a04565b6103b0565b610120610209366004610a04565b61042b565b6101de61021c366004610a04565b610439565b61013461022f366004610a8c565b610443565b60606003805461024390610abf565b80601f016020809104026020016040519081016040528092919081815260200182805461026f90610abf565b80156102bc5780601f10610291576101008083540402835291602001916102bc565b820191906000526020600020905b81548152906001019060200180831161029f57829003601f168201915b5050505050905090565b6000336102d481858561046e565b60019150505b92915050565b6000336102ee858285610593565b6102f985858561060d565b506001949350505050565b6000336102d48185856103178383610443565b6103219190610af9565b61046e565b6005546001600160a01b031633146103935760405162461bcd60e51b815260206004820152602560248201527f4f6e6c7920746865204f776e65722063616e2063616c6c20746869732066756e60448201526431ba34b7b760d91b60648201526084015b60405180910390fd5b61039d82826107b1565b5050565b60606004805461024390610abf565b600033816103be8286610443565b90508381101561041e5760405162461bcd60e51b815260206004820152602560248201527f45524332303a2064656372656173656420616c6c6f77616e63652062656c6f77604482015264207a65726f60d81b606482015260840161038a565b6102f9828686840361046e565b6000336102d481858561060d565b61039d8282610870565b6001600160a01b03918216600090815260016020908152604080832093909416825291909152205490565b6001600160a01b0383166104d05760405162461bcd60e51b8152602060048201526024808201527f45524332303a20617070726f76652066726f6d20746865207a65726f206164646044820152637265737360e01b606482015260840161038a565b6001600160a01b0382166105315760405162461bcd60e51b815260206004820152602260248201527f45524332303a20617070726f766520746f20746865207a65726f206164647265604482015261737360f01b606482015260840161038a565b6001600160a01b0383811660008181526001602090815260408083209487168084529482529182902085905590518481527f8c5be1e5ebec7d5bd14f71427d1e84f3dd0314c0f7b2291e5b200ac8c7c3b92591015b60405180910390a3505050565b600061059f8484610443565b9050600019811461060757818110156105fa5760405162461bcd60e51b815260206004820152601d60248201527f45524332303a20696e73756666696369656e7420616c6c6f77616e6365000000604482015260640161038a565b610607848484840361046e565b50505050565b6001600160a01b0383166106715760405162461bcd60e51b815260206004820152602560248201527f45524332303a207472616e736665722066726f6d20746865207a65726f206164604482015264647265737360d81b606482015260840161038a565b6001600160a01b0382166106d35760405162461bcd60e51b815260206004820152602360248201527f45524332303a207472616e7366657220746f20746865207a65726f206164647260448201526265737360e81b606482015260840161038a565b6001600160a01b0383166000908152602081905260409020548181101561074b5760405162461bcd60e51b815260206004820152602660248201527f45524332303a207472616e7366657220616d6f756e7420657863656564732062604482015265616c616e636560d01b606482015260840161038a565b6001600160a01b03848116600081815260208181526040808320878703905593871680835291849020805487019055925185815290927fddf252ad1be2c89b69c2b068fc378daa952ba7f163c4a11628f55a4df523b3ef910160405180910390a3610607565b6001600160a01b0382166108075760405162461bcd60e51b815260206004820152601f60248201527f45524332303a206d696e7420746f20746865207a65726f206164647265737300604482015260640161038a565b80600260008282546108199190610af9565b90915550506001600160a01b038216600081815260208181526040808320805486019055518481527fddf252ad1be2c89b69c2b068fc378daa952ba7f163c4a11628f55a4df523b3ef910160405180910390a35050565b6001600160a01b0382166108d05760405162461bcd60e51b815260206004820152602160248201527f45524332303a206275726e2066726f6d20746865207a65726f206164647265736044820152607360f81b606482015260840161038a565b6001600160a01b038216600090815260208190526040902054818110156109445760405162461bcd60e51b815260206004820152602260248201527f45524332303a206275726e20616d6f756e7420657863656564732062616c616e604482015261636560f01b606482015260840161038a565b6001600160a01b0383166000818152602081815260408083208686039055600280548790039055518581529192917fddf252ad1be2c89b69c2b068fc378daa952ba7f163c4a11628f55a4df523b3ef9101610586565b600060208083528351808285015260005b818110156109c7578581018301518582016040015282016109ab565b506000604082860101526040601f19601f8301168501019250505092915050565b80356001600160a01b03811681146109ff57600080fd5b919050565b60008060408385031215610a1757600080fd5b610a20836109e8565b946020939093013593505050565b600080600060608486031215610a4357600080fd5b610a4c846109e8565b9250610a5a602085016109e8565b9150604084013590509250925092565b600060208284031215610a7c57600080fd5b610a85826109e8565b9392505050565b60008060408385031215610a9f57600080fd5b610aa8836109e8565b9150610ab6602084016109e8565b90509250929050565b600181811c90821680610ad357607f821691505b602082108103610af357634e487b7160e01b600052602260045260246000fd5b50919050565b808201808211156102da57634e487b7160e01b600052601160045260246000fdfea26469706673582212200c05ba48e69e77e824f3b2d447e7c6c65ad5e9701d5a3a13a02daf0589a995db64736f6c63430008130033",
    "linkReferences": {}
  },
  "methodIdentifiers": {
    "addressToBottleQuantity(address)": "78c4eb8b",
    "addressToUser(address)": "edf53886",
    "depositPetBottle(address,uint256)": "c01d4283",
    "exchangeRateInUSDC()": "775ab083",
    "receiptTokens(address)": "d6d4e9ed",
    "redeemReceiptTokens(uint256)": "92ecd541"
  },
  "id": 0
}