{
  "_format": "hh-sol-artifact-1",
  "contractName": "EcoDriveChainFactory",
  "sourceName": "contracts/EcoDriveChainFactory.sol",
  "abi": [
    {
      "inputs": [],
      "stateMutability": "nonpayable",
      "type": "constructor"
    },
    {
      "anonymous": false,
      "inputs": [
        {
          "indexed": false,
          "internalType": "address",
          "name": "user",
          "type": "address"
        },
        {
          "indexed": false,
          "internalType": "uint256",
          "name": "petBottleQty",
          "type": "uint256"
        },
        {
          "indexed": false,
          "internalType": "address",
          "name": "uSDCWalletAddr",
          "type": "address"
        }
      ],
      "name": "PetBottleRecycled",
      "type": "event"
    },
    {
      "anonymous": false,
      "inputs": [
        {
          "indexed": false,
          "internalType": "address",
          "name": "user",
          "type": "address"
        },
        {
          "indexed": false,
          "internalType": "address",
          "name": "_uSDCWalletAddress",
          "type": "address"
        }
      ],
      "name": "SubmitUSDCAddressForPayment",
      "type": "event"
    },
    {
      "inputs": [
        {
          "internalType": "address",
          "name": "",
          "type": "address"
        }
      ],
      "name": "addressToBottleQuantity",
      "outputs": [
        {
          "internalType": "uint256",
          "name": "",
          "type": "uint256"
        }
      ],
      "stateMutability": "view",
      "type": "function"
    },
    {
      "inputs": [
        {
          "internalType": "address",
          "name": "",
          "type": "address"
        }
      ],
      "name": "addressToSubmitted",
      "outputs": [
        {
          "internalType": "bool",
          "name": "",
          "type": "bool"
        }
      ],
      "stateMutability": "view",
      "type": "function"
    },
    {
      "inputs": [
        {
          "internalType": "address",
          "name": "",
          "type": "address"
        }
      ],
      "name": "addressToUser",
      "outputs": [
        {
          "internalType": "string",
          "name": "email",
          "type": "string"
        },
        {
          "internalType": "address payable",
          "name": "usdcWalletAddress",
          "type": "address"
        }
      ],
      "stateMutability": "view",
      "type": "function"
    },
    {
      "inputs": [],
      "name": "exchangeRateInUSDC",
      "outputs": [
        {
          "internalType": "uint256",
          "name": "",
          "type": "uint256"
        }
      ],
      "stateMutability": "view",
      "type": "function"
    },
    {
      "inputs": [
        {
          "internalType": "address",
          "name": "_user",
          "type": "address"
        }
      ],
      "name": "getRecycledPetBottleQuantity",
      "outputs": [
        {
          "internalType": "uint256",
          "name": "",
          "type": "uint256"
        }
      ],
      "stateMutability": "view",
      "type": "function"
    },
    {
      "inputs": [
        {
          "internalType": "uint256",
          "name": "userIndex",
          "type": "uint256"
        }
      ],
      "name": "getrecycledUsers",
      "outputs": [
        {
          "internalType": "address",
          "name": "",
          "type": "address"
        }
      ],
      "stateMutability": "view",
      "type": "function"
    },
    {
      "inputs": [
        {
          "internalType": "address",
          "name": "",
          "type": "address"
        }
      ],
      "name": "receiptTokens",
      "outputs": [
        {
          "internalType": "contract rEDCToken",
          "name": "",
          "type": "address"
        }
      ],
      "stateMutability": "view",
      "type": "function"
    },
    {
      "inputs": [
        {
          "internalType": "address payable",
          "name": "uSDCWalletAddr",
          "type": "address"
        },
        {
          "internalType": "uint256",
          "name": "petBottleQty",
          "type": "uint256"
        }
      ],
      "name": "recyclePetBottle",
      "outputs": [],
      "stateMutability": "nonpayable",
      "type": "function"
    },
    {
      "inputs": [
        {
          "internalType": "address",
          "name": "_uSDCWalletAddress",
          "type": "address"
        }
      ],
      "name": "submitUSDCAddressForPayment",
      "outputs": [],
      "stateMutability": "nonpayable",
      "type": "function"
    },
    {
      "inputs": [
        {
          "internalType": "address",
          "name": "",
          "type": "address"
        }
      ],
      "name": "tokens",
      "outputs": [
        {
          "internalType": "contract IERC20",
          "name": "",
          "type": "address"
        }
      ],
      "stateMutability": "view",
      "type": "function"
    }
  ],
  "bytecode": "0x608060405234801561001057600080fd5b5067016345785d8a0000600981905550612dc98061002f6000396000f3fe60806040523480156200001157600080fd5b5060043610620000ac5760003560e01c8063d6d4e9ed116200006f578063d6d4e9ed1462000195578063e486033914620001cb578063edf538861462000201578063edfc71781462000238578063fa190a9a146200025857620000ac565b806346afd5e414620000b1578063559b68ac14620000e7578063775ab083146200011d57806378c4eb8b146200013f578063957dade71462000175575b600080fd5b620000cf6004803603810190620000c9919062000a19565b6200028e565b604051620000de919062000a90565b60405180910390f35b620001056004803603810190620000ff919062000ade565b62000323565b60405162000114919062000b21565b60405180910390f35b620001276200036c565b60405162000136919062000b21565b60405180910390f35b6200015d600480360381019062000157919062000ade565b62000372565b6040516200016c919062000b21565b60405180910390f35b6200019360048036038101906200018d919062000b83565b6200038a565b005b620001b36004803603810190620001ad919062000ade565b62000628565b604051620001c2919062000c35565b60405180910390f35b620001e96004803603810190620001e3919062000ade565b6200065b565b604051620001f8919062000c77565b60405180910390f35b6200021f600480360381019062000219919062000ade565b6200068e565b6040516200022f92919062000d49565b60405180910390f35b62000256600480360381019062000250919062000ade565b62000762565b005b62000276600480360381019062000270919062000ade565b620009ab565b60405162000285919062000d9a565b60405180910390f35b60006003805490508210620002da576040517f08c379a0000000000000000000000000000000000000000000000000000000008152600401620002d19062000e07565b60405180910390fd5b60038281548110620002f157620002f062000e29565b5b9060005260206000200160009054906101000a900473ffffffffffffffffffffffffffffffffffffffff169050919050565b6000600560008373ffffffffffffffffffffffffffffffffffffffff1673ffffffffffffffffffffffffffffffffffffffff168152602001908152602001600020549050919050565b60095481565b60056020528060005260406000206000915090505481565b81600460003373ffffffffffffffffffffffffffffffffffffffff1673ffffffffffffffffffffffffffffffffffffffff16815260200190815260200160002060010160006101000a81548173ffffffffffffffffffffffffffffffffffffffff021916908373ffffffffffffffffffffffffffffffffffffffff16021790555080600560003373ffffffffffffffffffffffffffffffffffffffff1673ffffffffffffffffffffffffffffffffffffffff16815260200190815260200160002060008282546200045c919062000e87565b925050819055506040516200047190620009cb565b6200047c9062000f84565b604051809103906000f08015801562000499573d6000803e3d6000fd5b50600660003373ffffffffffffffffffffffffffffffffffffffff1673ffffffffffffffffffffffffffffffffffffffff16815260200190815260200160002060006101000a81548173ffffffffffffffffffffffffffffffffffffffff021916908373ffffffffffffffffffffffffffffffffffffffff160217905550600660003373ffffffffffffffffffffffffffffffffffffffff1673ffffffffffffffffffffffffffffffffffffffff16815260200190815260200160002060009054906101000a900473ffffffffffffffffffffffffffffffffffffffff1673ffffffffffffffffffffffffffffffffffffffff166379c6506833836040518363ffffffff1660e01b8152600401620005b392919062000fbb565b600060405180830381600087803b158015620005ce57600080fd5b505af1158015620005e3573d6000803e3d6000fd5b505050507f159989a43372f7ea8f48025b51a2bdf0e46c6e956417f79067ebf72c94e59e4f3382846040516200061c939291906200100d565b60405180910390a15050565b60066020528060005260406000206000915054906101000a900473ffffffffffffffffffffffffffffffffffffffff1681565b60076020528060005260406000206000915054906101000a900473ffffffffffffffffffffffffffffffffffffffff1681565b6004602052806000526040600020600091509050806000018054620006b39062001079565b80601f0160208091040260200160405190810160405280929190818152602001828054620006e19062001079565b8015620007325780601f10620007065761010080835404028352916020019162000732565b820191906000526020600020905b8154815290600101906020018083116200071457829003601f168201915b5050505050908060010160009054906101000a900473ffffffffffffffffffffffffffffffffffffffff16905082565b600073ffffffffffffffffffffffffffffffffffffffff168173ffffffffffffffffffffffffffffffffffffffff161415620007d5576040517f08c379a0000000000000000000000000000000000000000000000000000000008152600401620007cc90620010ff565b60405180910390fd5b8073ffffffffffffffffffffffffffffffffffffffff16600460003373ffffffffffffffffffffffffffffffffffffffff1673ffffffffffffffffffffffffffffffffffffffff16815260200190815260200160002060010160009054906101000a900473ffffffffffffffffffffffffffffffffffffffff1673ffffffffffffffffffffffffffffffffffffffff1614620008a8576040517f08c379a00000000000000000000000000000000000000000000000000000000081526004016200089f9062001171565b60405180910390fd5b6003819080600181540180825580915050600190039060005260206000200160009091909190916101000a81548173ffffffffffffffffffffffffffffffffffffffff021916908373ffffffffffffffffffffffffffffffffffffffff1602179055507f1157a367f691b9dea5d24903e6dd7f2aa32a01c07bfd3ebaec81c945076e64f033600460003373ffffffffffffffffffffffffffffffffffffffff1673ffffffffffffffffffffffffffffffffffffffff16815260200190815260200160002060010160009054906101000a900473ffffffffffffffffffffffffffffffffffffffff16604051620009a092919062001193565b60405180910390a150565b60086020528060005260406000206000915054906101000a900460ff1681565b611bd380620011c183390190565b600080fd5b6000819050919050565b620009f381620009de565b8114620009ff57600080fd5b50565b60008135905062000a1381620009e8565b92915050565b60006020828403121562000a325762000a31620009d9565b5b600062000a428482850162000a02565b91505092915050565b600073ffffffffffffffffffffffffffffffffffffffff82169050919050565b600062000a788262000a4b565b9050919050565b62000a8a8162000a6b565b82525050565b600060208201905062000aa7600083018462000a7f565b92915050565b62000ab88162000a6b565b811462000ac457600080fd5b50565b60008135905062000ad88162000aad565b92915050565b60006020828403121562000af75762000af6620009d9565b5b600062000b078482850162000ac7565b91505092915050565b62000b1b81620009de565b82525050565b600060208201905062000b38600083018462000b10565b92915050565b600062000b4b8262000a4b565b9050919050565b62000b5d8162000b3e565b811462000b6957600080fd5b50565b60008135905062000b7d8162000b52565b92915050565b6000806040838503121562000b9d5762000b9c620009d9565b5b600062000bad8582860162000b6c565b925050602062000bc08582860162000a02565b9150509250929050565b6000819050919050565b600062000bf562000bef62000be98462000a4b565b62000bca565b62000a4b565b9050919050565b600062000c098262000bd4565b9050919050565b600062000c1d8262000bfc565b9050919050565b62000c2f8162000c10565b82525050565b600060208201905062000c4c600083018462000c24565b92915050565b600062000c5f8262000bfc565b9050919050565b62000c718162000c52565b82525050565b600060208201905062000c8e600083018462000c66565b92915050565b600081519050919050565b600082825260208201905092915050565b60005b8381101562000cd057808201518184015260208101905062000cb3565b8381111562000ce0576000848401525b50505050565b6000601f19601f8301169050919050565b600062000d048262000c94565b62000d10818562000c9f565b935062000d2281856020860162000cb0565b62000d2d8162000ce6565b840191505092915050565b62000d438162000b3e565b82525050565b6000604082019050818103600083015262000d65818562000cf7565b905062000d76602083018462000d38565b9392505050565b60008115159050919050565b62000d948162000d7d565b82525050565b600060208201905062000db1600083018462000d89565b92915050565b7f496e76616c6964207573657220696e6465780000000000000000000000000000600082015250565b600062000def60128362000c9f565b915062000dfc8262000db7565b602082019050919050565b6000602082019050818103600083015262000e228162000de0565b9050919050565b7f4e487b7100000000000000000000000000000000000000000000000000000000600052603260045260246000fd5b7f4e487b7100000000000000000000000000000000000000000000000000000000600052601160045260246000fd5b600062000e9482620009de565b915062000ea183620009de565b9250827fffffffffffffffffffffffffffffffffffffffffffffffffffffffffffffffff0382111562000ed95762000ed862000e58565b5b828201905092915050565b7f5265636569707420454443000000000000000000000000000000000000000000600082015250565b600062000f1c600b8362000c9f565b915062000f298262000ee4565b602082019050919050565b7f7244454300000000000000000000000000000000000000000000000000000000600082015250565b600062000f6c60048362000c9f565b915062000f798262000f34565b602082019050919050565b6000604082019050818103600083015262000f9f8162000f0d565b9050818103602083015262000fb48162000f5d565b9050919050565b600060408201905062000fd2600083018562000a7f565b62000fe1602083018462000b10565b9392505050565b600062000ff58262000bfc565b9050919050565b620010078162000fe8565b82525050565b600060608201905062001024600083018662000a7f565b62001033602083018562000b10565b62001042604083018462000ffc565b949350505050565b7f4e487b7100000000000000000000000000000000000000000000000000000000600052602260045260246000fd5b600060028204905060018216806200109257607f821691505b60208210811415620010a957620010a86200104a565b5b50919050565b7f4e6f742056616c69642041646472657373000000000000000000000000000000600082015250565b6000620010e760118362000c9f565b9150620010f482620010af565b602082019050919050565b600060208201905081810360008301526200111a81620010d8565b9050919050565b7f4e6f7420612076616c69642052656379636c6572000000000000000000000000600082015250565b60006200115960148362000c9f565b9150620011668262001121565b602082019050919050565b600060208201905081810360008301526200118c816200114a565b9050919050565b6000604082019050620011aa600083018562000a7f565b620011b9602083018462000ffc565b939250505056fe60806040523480156200001157600080fd5b5060405162001bd338038062001bd38339818101604052810190620000379190620002c2565b818181600390805190602001906200005192919062000075565b5080600490805190602001906200006a92919062000075565b5050505050620003ac565b828054620000839062000376565b90600052602060002090601f016020900481019282620000a75760008555620000f3565b82601f10620000c257805160ff1916838001178555620000f3565b82800160010185558215620000f3579182015b82811115620000f2578251825591602001919060010190620000d5565b5b50905062000102919062000106565b5090565b5b808211156200012157600081600090555060010162000107565b5090565b6000604051905090565b600080fd5b600080fd5b600080fd5b600080fd5b6000601f19601f8301169050919050565b7f4e487b7100000000000000000000000000000000000000000000000000000000600052604160045260246000fd5b6200018e8262000143565b810181811067ffffffffffffffff82111715620001b057620001af62000154565b5b80604052505050565b6000620001c562000125565b9050620001d3828262000183565b919050565b600067ffffffffffffffff821115620001f657620001f562000154565b5b620002018262000143565b9050602081019050919050565b60005b838110156200022e57808201518184015260208101905062000211565b838111156200023e576000848401525b50505050565b60006200025b6200025584620001d8565b620001b9565b9050828152602081018484840111156200027a57620002796200013e565b5b620002878482856200020e565b509392505050565b600082601f830112620002a757620002a662000139565b5b8151620002b984826020860162000244565b91505092915050565b60008060408385031215620002dc57620002db6200012f565b5b600083015167ffffffffffffffff811115620002fd57620002fc62000134565b5b6200030b858286016200028f565b925050602083015167ffffffffffffffff8111156200032f576200032e62000134565b5b6200033d858286016200028f565b9150509250929050565b7f4e487b7100000000000000000000000000000000000000000000000000000000600052602260045260246000fd5b600060028204905060018216806200038f57607f821691505b60208210811415620003a657620003a562000347565b5b50919050565b61181780620003bc6000396000f3fe608060405234801561001057600080fd5b50600436106100ea5760003560e01c806370a082311161008c578063a457c2d711610066578063a457c2d714610261578063a9059cbb14610291578063d1df306c146102c1578063dd62ed3e146102dd576100ea565b806370a08231146101f757806379c650681461022757806395d89b4114610243576100ea565b806323b872dd116100c857806323b872dd1461015b578063313ce5671461018b57806339509351146101a95780633fab693f146101d9576100ea565b806306fdde03146100ef578063095ea7b31461010d57806318160ddd1461013d575b600080fd5b6100f761030d565b6040516101049190610f17565b60405180910390f35b61012760048036038101906101229190610fd2565b61039f565b604051610134919061102d565b60405180910390f35b6101456103c2565b6040516101529190611057565b60405180910390f35b61017560048036038101906101709190611072565b6103cc565b604051610182919061102d565b60405180910390f35b6101936103fb565b6040516101a091906110e1565b60405180910390f35b6101c360048036038101906101be9190610fd2565b610404565b6040516101d0919061102d565b60405180910390f35b6101e161043b565b6040516101ee919061110b565b60405180910390f35b610211600480360381019061020c9190611126565b610461565b60405161021e9190611057565b60405180910390f35b610241600480360381019061023c9190610fd2565b6104a9565b005b61024b6104b7565b6040516102589190610f17565b60405180910390f35b61027b60048036038101906102769190610fd2565b610549565b604051610288919061102d565b60405180910390f35b6102ab60048036038101906102a69190610fd2565b6105c0565b6040516102b8919061102d565b60405180910390f35b6102db60048036038101906102d69190610fd2565b6105e3565b005b6102f760048036038101906102f29190611153565b6105f1565b6040516103049190611057565b60405180910390f35b60606003805461031c906111c2565b80601f0160208091040260200160405190810160405280929190818152602001828054610348906111c2565b80156103955780601f1061036a57610100808354040283529160200191610395565b820191906000526020600020905b81548152906001019060200180831161037857829003601f168201915b5050505050905090565b6000806103aa610678565b90506103b7818585610680565b600191505092915050565b6000600254905090565b6000806103d7610678565b90506103e485828561084b565b6103ef8585856108d7565b60019150509392505050565b60006012905090565b60008061040f610678565b905061043081858561042185896105f1565b61042b9190611223565b610680565b600191505092915050565b600660009054906101000a900473ffffffffffffffffffffffffffffffffffffffff1681565b60008060008373ffffffffffffffffffffffffffffffffffffffff1673ffffffffffffffffffffffffffffffffffffffff168152602001908152602001600020549050919050565b6104b38282610b4f565b5050565b6060600480546104c6906111c2565b80601f01602080910402602001604051908101604052809291908181526020018280546104f2906111c2565b801561053f5780601f106105145761010080835404028352916020019161053f565b820191906000526020600020905b81548152906001019060200180831161052257829003601f168201915b5050505050905090565b600080610554610678565b9050600061056282866105f1565b9050838110156105a7576040517f08c379a000000000000000000000000000000000000000000000000000000000815260040161059e906112eb565b60405180910390fd5b6105b48286868403610680565b60019250505092915050565b6000806105cb610678565b90506105d88185856108d7565b600191505092915050565b6105ed8282610ca6565b5050565b6000600160008473ffffffffffffffffffffffffffffffffffffffff1673ffffffffffffffffffffffffffffffffffffffff16815260200190815260200160002060008373ffffffffffffffffffffffffffffffffffffffff1673ffffffffffffffffffffffffffffffffffffffff16815260200190815260200160002054905092915050565b600033905090565b600073ffffffffffffffffffffffffffffffffffffffff168373ffffffffffffffffffffffffffffffffffffffff1614156106f0576040517f08c379a00000000000000000000000000000000000000000000000000000000081526004016106e79061137d565b60405180910390fd5b600073ffffffffffffffffffffffffffffffffffffffff168273ffffffffffffffffffffffffffffffffffffffff161415610760576040517f08c379a00000000000000000000000000000000000000000000000000000000081526004016107579061140f565b60405180910390fd5b80600160008573ffffffffffffffffffffffffffffffffffffffff1673ffffffffffffffffffffffffffffffffffffffff16815260200190815260200160002060008473ffffffffffffffffffffffffffffffffffffffff1673ffffffffffffffffffffffffffffffffffffffff168152602001908152602001600020819055508173ffffffffffffffffffffffffffffffffffffffff168373ffffffffffffffffffffffffffffffffffffffff167f8c5be1e5ebec7d5bd14f71427d1e84f3dd0314c0f7b2291e5b200ac8c7c3b9258360405161083e9190611057565b60405180910390a3505050565b600061085784846105f1565b90507fffffffffffffffffffffffffffffffffffffffffffffffffffffffffffffffff81146108d157818110156108c3576040517f08c379a00000000000000000000000000000000000000000000000000000000081526004016108ba9061147b565b60405180910390fd5b6108d08484848403610680565b5b50505050565b600073ffffffffffffffffffffffffffffffffffffffff168373ffffffffffffffffffffffffffffffffffffffff161415610947576040517f08c379a000000000000000000000000000000000000000000000000000000000815260040161093e9061150d565b60405180910390fd5b600073ffffffffffffffffffffffffffffffffffffffff168273ffffffffffffffffffffffffffffffffffffffff1614156109b7576040517f08c379a00000000000000000000000000000000000000000000000000000000081526004016109ae9061159f565b60405180910390fd5b6109c2838383610e74565b60008060008573ffffffffffffffffffffffffffffffffffffffff1673ffffffffffffffffffffffffffffffffffffffff16815260200190815260200160002054905081811015610a48576040517f08c379a0000000000000000000000000000000000000000000000000000000008152600401610a3f90611631565b60405180910390fd5b8181036000808673ffffffffffffffffffffffffffffffffffffffff1673ffffffffffffffffffffffffffffffffffffffff16815260200190815260200160002081905550816000808573ffffffffffffffffffffffffffffffffffffffff1673ffffffffffffffffffffffffffffffffffffffff168152602001908152602001600020600082825401925050819055508273ffffffffffffffffffffffffffffffffffffffff168473ffffffffffffffffffffffffffffffffffffffff167fddf252ad1be2c89b69c2b068fc378daa952ba7f163c4a11628f55a4df523b3ef84604051610b369190611057565b60405180910390a3610b49848484610e79565b50505050565b600073ffffffffffffffffffffffffffffffffffffffff168273ffffffffffffffffffffffffffffffffffffffff161415610bbf576040517f08c379a0000000000000000000000000000000000000000000000000000000008152600401610bb69061169d565b60405180910390fd5b610bcb60008383610e74565b8060026000828254610bdd9190611223565b92505081905550806000808473ffffffffffffffffffffffffffffffffffffffff1673ffffffffffffffffffffffffffffffffffffffff168152602001908152602001600020600082825401925050819055508173ffffffffffffffffffffffffffffffffffffffff16600073ffffffffffffffffffffffffffffffffffffffff167fddf252ad1be2c89b69c2b068fc378daa952ba7f163c4a11628f55a4df523b3ef83604051610c8e9190611057565b60405180910390a3610ca260008383610e79565b5050565b600073ffffffffffffffffffffffffffffffffffffffff168273ffffffffffffffffffffffffffffffffffffffff161415610d16576040517f08c379a0000000000000000000000000000000000000000000000000000000008152600401610d0d9061172f565b60405180910390fd5b610d2282600083610e74565b60008060008473ffffffffffffffffffffffffffffffffffffffff1673ffffffffffffffffffffffffffffffffffffffff16815260200190815260200160002054905081811015610da8576040517f08c379a0000000000000000000000000000000000000000000000000000000008152600401610d9f906117c1565b60405180910390fd5b8181036000808573ffffffffffffffffffffffffffffffffffffffff1673ffffffffffffffffffffffffffffffffffffffff1681526020019081526020016000208190555081600260008282540392505081905550600073ffffffffffffffffffffffffffffffffffffffff168373ffffffffffffffffffffffffffffffffffffffff167fddf252ad1be2c89b69c2b068fc378daa952ba7f163c4a11628f55a4df523b3ef84604051610e5b9190611057565b60405180910390a3610e6f83600084610e79565b505050565b505050565b505050565b600081519050919050565b600082825260208201905092915050565b60005b83811015610eb8578082015181840152602081019050610e9d565b83811115610ec7576000848401525b50505050565b6000601f19601f8301169050919050565b6000610ee982610e7e565b610ef38185610e89565b9350610f03818560208601610e9a565b610f0c81610ecd565b840191505092915050565b60006020820190508181036000830152610f318184610ede565b905092915050565b600080fd5b600073ffffffffffffffffffffffffffffffffffffffff82169050919050565b6000610f6982610f3e565b9050919050565b610f7981610f5e565b8114610f8457600080fd5b50565b600081359050610f9681610f70565b92915050565b6000819050919050565b610faf81610f9c565b8114610fba57600080fd5b50565b600081359050610fcc81610fa6565b92915050565b60008060408385031215610fe957610fe8610f39565b5b6000610ff785828601610f87565b925050602061100885828601610fbd565b9150509250929050565b60008115159050919050565b61102781611012565b82525050565b6000602082019050611042600083018461101e565b92915050565b61105181610f9c565b82525050565b600060208201905061106c6000830184611048565b92915050565b60008060006060848603121561108b5761108a610f39565b5b600061109986828701610f87565b93505060206110aa86828701610f87565b92505060406110bb86828701610fbd565b9150509250925092565b600060ff82169050919050565b6110db816110c5565b82525050565b60006020820190506110f660008301846110d2565b92915050565b61110581610f5e565b82525050565b600060208201905061112060008301846110fc565b92915050565b60006020828403121561113c5761113b610f39565b5b600061114a84828501610f87565b91505092915050565b6000806040838503121561116a57611169610f39565b5b600061117885828601610f87565b925050602061118985828601610f87565b9150509250929050565b7f4e487b7100000000000000000000000000000000000000000000000000000000600052602260045260246000fd5b600060028204905060018216806111da57607f821691505b602082108114156111ee576111ed611193565b5b50919050565b7f4e487b7100000000000000000000000000000000000000000000000000000000600052601160045260246000fd5b600061122e82610f9c565b915061123983610f9c565b9250827fffffffffffffffffffffffffffffffffffffffffffffffffffffffffffffffff0382111561126e5761126d6111f4565b5b828201905092915050565b7f45524332303a2064656372656173656420616c6c6f77616e63652062656c6f7760008201527f207a65726f000000000000000000000000000000000000000000000000000000602082015250565b60006112d5602583610e89565b91506112e082611279565b604082019050919050565b60006020820190508181036000830152611304816112c8565b9050919050565b7f45524332303a20617070726f76652066726f6d20746865207a65726f2061646460008201527f7265737300000000000000000000000000000000000000000000000000000000602082015250565b6000611367602483610e89565b91506113728261130b565b604082019050919050565b600060208201905081810360008301526113968161135a565b9050919050565b7f45524332303a20617070726f766520746f20746865207a65726f20616464726560008201527f7373000000000000000000000000000000000000000000000000000000000000602082015250565b60006113f9602283610e89565b91506114048261139d565b604082019050919050565b60006020820190508181036000830152611428816113ec565b9050919050565b7f45524332303a20696e73756666696369656e7420616c6c6f77616e6365000000600082015250565b6000611465601d83610e89565b91506114708261142f565b602082019050919050565b6000602082019050818103600083015261149481611458565b9050919050565b7f45524332303a207472616e736665722066726f6d20746865207a65726f20616460008201527f6472657373000000000000000000000000000000000000000000000000000000602082015250565b60006114f7602583610e89565b91506115028261149b565b604082019050919050565b60006020820190508181036000830152611526816114ea565b9050919050565b7f45524332303a207472616e7366657220746f20746865207a65726f206164647260008201527f6573730000000000000000000000000000000000000000000000000000000000602082015250565b6000611589602383610e89565b91506115948261152d565b604082019050919050565b600060208201905081810360008301526115b88161157c565b9050919050565b7f45524332303a207472616e7366657220616d6f756e742065786365656473206260008201527f616c616e63650000000000000000000000000000000000000000000000000000602082015250565b600061161b602683610e89565b9150611626826115bf565b604082019050919050565b6000602082019050818103600083015261164a8161160e565b9050919050565b7f45524332303a206d696e7420746f20746865207a65726f206164647265737300600082015250565b6000611687601f83610e89565b915061169282611651565b602082019050919050565b600060208201905081810360008301526116b68161167a565b9050919050565b7f45524332303a206275726e2066726f6d20746865207a65726f2061646472657360008201527f7300000000000000000000000000000000000000000000000000000000000000602082015250565b6000611719602183610e89565b9150611724826116bd565b604082019050919050565b600060208201905081810360008301526117488161170c565b9050919050565b7f45524332303a206275726e20616d6f756e7420657863656564732062616c616e60008201527f6365000000000000000000000000000000000000000000000000000000000000602082015250565b60006117ab602283610e89565b91506117b68261174f565b604082019050919050565b600060208201905081810360008301526117da8161179e565b905091905056fea2646970667358221220d5ff6241770630972551c92087096bddbf43489cb3551d6971ac83535ae8333c64736f6c63430008080033a2646970667358221220e478700581a023889c09a7fc148e0cd7403b86653a54eefc9cb034f4d9d70e0d64736f6c63430008080033",
  "linkReferences": {},
  "deployedLinkReferences": {}
}